:100C2F00EF14602D14604A14606724036003020CF4
:100C3F00C1BB010E7401A805088002C333D8FC4262
:100C4F0080227401A805088002C333D8FCF45280B7
:100C5F0022BB010E7401A805088002C333D8FC42E1
:100C6F0090227401A805088002C333D8FCF4529077
:100C7F0022BB010E7401A805088002C333D8FC42C1
:100C8F00A0227401A805088002C333D8FCF452A037
:100C9F0022BB010E7401A805088002C333D8FC42A1
:100CAF00B022AF057401A807088002C333D8FCF443
:030CBF0052B0220E
:100E9400AD071FED60127EFAAD061EED70FA7EF707
:090EA400AD061EED60EA80F822A3
:0C0EF000000000000000000000000000F6
:100EC100C2A08F80C2A1D2A27F02120E94C2A2221E
:100ED100D2A08F80C2A1D2A27F02120E94C2A222FE
:100EAD007F01120EC17F38120EC17F0F120EC17F4E
:040EBD0080020EC1E0
:100E56008B208A218922AB20AA21A922120BB3FF5B
:100E66006010120ED174012522F522E43521F521F8
:030E760080E422F3
:100E1F008F238D24E523B40113E524D394004026BA
:100E2F00E52494105020E52424808016E523B40295
:100E3F0015E524D39400400EE52494105008E524C2
:070E4F0024C0FF120EC122B6
:100E79008F25E4F526E526C39525500E7F18120E19
:0B0E8900C17FC8120E94052680EB22EA
:100CC2008E088F09780A7C007D007BFF7A0E79F00E
:100CD2007E007F0C120B8DE4F516F517E509450829
:100CE2006034AE08AF097C007D0A120BCCAB05AABA
:100CF20004E51725E0240AF8A60208A603AE08AF09
:100D0200097C007D0A120BCC8E088F090517E517A6
:100D120070CA051680C6E5171517AE1670021516AD
:100D22004E6011E51725E0240AF808E62430FF1288
:050D32000ED180E22259
:100D37008F1B8E1A8D198C18120A3C8F1F8E1E8DD1
:100D47001D8C1C120CC27F2E120ED1AF1BAE1AAD1A
:100D570019AC18C004C005C006C007AF1FAE1EAD52
:100D67001DAC1CE41209FEA804A905AA06AB07D00E
:100D770007D006D005D0041208038F1B8E1A8D19D1
:100D87008C18E4FFFE7D7A7C44AB1BAA1AA919A82C
:100D9700181208F8120A3C8F1F8E1E8D1D8C1C021C
:020DA7000CC27C
:100DA9008F27E52754F0FFE58054F04FF580C2A066
:100DB900C2A1D2A27F02120E94C2A27F04120E9483
:100DC900E527C454F0FFE58054F04FF580D2A27FA7
:0B0DD90002120E94C2A27F04020E94CE
:0F0EE1007F02120EC17F0E120EC17F28020EC1BA
:100DE4008F28E52854F0FFE58054F04FF580D2A019
:100DF400C2A1D2A27F02120E94C2A27F04120E9448
:100E0400E528C454F0FFE58054F04FF580D2A27F6A
:0B0E140002120E94C2A27F04020E9492
:0A0F0800120EE17F41120DE480FE9D
:10080000020AA8E86480F8E933E83360110460F074
:10081000ED33EC337009E8FCE9FDEAFEEBFF22045E
:1008200060DED3EB9FEA9EE99DE8C2E78CF0C2F759
:1008300095F0400CE8CCF8E9CDF9EACEFAEBCFFB25
:10084000120A7385D0F05804700320D5B3E8047001
:10085000075002B2D5020AB292D5EC0460F7E4CC9C
:10086000C0E0C398F8603B94186008400DD0E0FBEE
:10087000020A8AE4FBFAC9FC8028E830E406E4C9ED
:10088000FBE4CAFCE830E305E4C9CACBFCE8540742
:100890006010F8C3E913F9EA13FAEB13FBEC13FC4D
:1008A000D8F130F52FC3E49CFCEF9BFFEE9AFEEDF0
:1008B00099FDD0E0FBEF4E4D4C701222DB03020A93
:1008C000AFEC2CFCEF33FFEE33FEED33FDED30E704
:1008D000EB020A8AEF2BFFEE3AFEED39FDD0E0FB8A
:1008E00050130BBB0003020AB2ED13FDEE13FEEF33
:0808F00013FFEC13FC020A8A5D
:1008F800EC4D6011E8497017ED33EC3304600DE4FA
:10090800FCFFFEFD22E933E8330470F8020AA8125E
:100918000A7358046009E4CC24815006285009025F
:100928000AB2284003020AAFC0E0EB4A7044B9801B
:1009380006D0E0FB020A9EEF4E701CBD8008EBFF5C
:10094800EAFEE9FD80EBE98DF0A4FEE5F00209E19D
:10095800E9CDF9EAFEEBFFEF89F0A4FCE5F0CE89DA
:10096800F0A42EFFE435F0CD89F0A42DFEE435F097
:100978008067EF4E7005BD80D780C3EF8BF0A4ACC5
:10098800F0EE8BF0A42CFCE435F0F8EF8AF0A42C00
:10099800E5F038FCE433CB8DF0A42CFCE5F03BF813
:1009A800EE8AF0A42CFCE5F038F8E433CF89F0A403
:1009B8002CFCE5F038CF3400CE89F0A42FFFE5F009
:1009C8003EFEE433C98DF0A42EFEE5F039CD8AF061
:1009D800A42FFFE5F03EFEE43DFD33D0E0FB5007D9
:1009E8000BBB000F020AB2EC2CFCEF33FFEE33FE18
:0609F800ED33FD020A8A46
:1009FE0075F020800E75F010800575F0087D007E74
:100A0E00007F003392D530D503120C21EC33401009
:100A1E00EF33FFEE33FEED33FDEC33FCD5F0ED227C
:0E0A2E00E5F0247EA2D513CC92E7CDCEFF22B8
:100A3C00EDD2E7CD33EC3392D524814006E4FFFEB2
:100A4C00FDFC22FCE4CFCECDCC24E0501174FF8011
:100A5C00EDC3CC13CCCD13CDCE13CECF13CF0470AE
:070A6C00F030D5DE020C2181
:100A7300E9D2E7C933E833F892D5EDD2E7CD33ECC9
:070A830033FC5002B2D52242
:100A8A00EC30E7100FBF000C0EBE00080DBD0004CD
:100A9A000BEB6014A2D5EB13FCED92E7FD2274FF79
:100AAA00FCFDFEFF22E480F8A2D574FF13FC7D80D2
:030ABA00E480EFE6
:03000000020EFCF1
:0C0EFC00787FE4F6D8FD758128020F080D
:100ABD00E709F608DFFA8046E709F208DFFA803E1B
:100ACD0088828C83E709F0A3DFFA8032E309F60808
:100ADD00DFFA8078E309F208DFFA807088828C8370
:100AED00E309F0A3DFFA806489828A83E0A3F60824
:100AFD00DFFA805889828A83E0A3F208DFFA804CFE
:100B0D0080D280FA80C680D4806980F280338010D4
:100B1D0080A680EA809A80A880DA80E280CA80333D
:100B2D0089828A83ECFAE493A3C8C582C8CCC583B5
:100B3D00CCF0A3C8C582C8CCC583CCDFE9DEE78085
:100B4D000D89828A83E493A3F608DFF9ECFAA9F004
:100B5D00EDFB2289828A83ECFAE0A3C8C582C8CC5A
:100B6D00C583CCF0A3C8C582C8CCC583CCDFEADE73
:100B7D00E880DB89828A83E493A3F208DFF980CCD5
:100B8D0088F0EF60010E4E60C388F0ED2402B404CE
:100B9D000050B9F582EB2402B4040050AF23234575
:060BAD008223900B0D7382
:100BB300BB010689828A83E0225002E722BBFE0240
:090BC300E32289828A83E4932273
:100BCC00BC000BBE0029EF8DF084FFADF022E4CC0D
:100BDC00F875F008EF2FFFEE33FEEC33FCEE9DECD6
:100BEC00984005FCEE9DFE0FD5F0E9E4CEFD22ED1C
:100BFC00F8F5F0EE8420D21CFEADF075F008EF2F66
:100C0C00FFED33FD4007985006D5F0F222C398FD56
:050C1C000FD5F0EA22F3
:0E0C2100C3E49FFFE49EFEE49DFDE49CFC22E4
:00000001FF
